:100000000C9496000C94B3000C94B3000C94B300C1
:100010000C94B3000C94B3000C94B3000C94B30094
:100020000C94B3000C942C070C94B3000C94B30004
:100030000C94B3000C94B3000C94B3000C94B30074
:100040000C94C4010C94B3000C94B3000C94B30052
:100050000C94B3000C94B3000C94B3000C94B30054
:100060000C94B3000C94B3007F05790582058505D7
:1000700088058B058E059105940597059A059D05C4
:100080009506AD06AD06AD06AD06AD06AD06AD06F0
:10009000AD06AD06AD06AD06AD06AD06AD06AD06C8
:1000A000AD06AD06AD06AD06AD06AD06AD06AD06B8
:1000B000AD06AD06AD063006AD062E06AD06AD06A4
:1000C000AD06AD06AD06AD06AD06AD06AD06AD0698
:1000D000AD06AD06AD06AD06AD06AD06AD06AD0688
:1000E000AD06AD06AD06AD06AD06AD06AD06AD0678
:1000F000AD06AD06AD06AD06AD06AD06AD06AD0668
:10010000B2062B06B5063206350638063B06AD06A6
:10011000AD06AD06AD063E065006AD066506AD065B
:10012000AD066B06AD066E06AD068E0611241FBE2B
:10013000CFEFD8E0DEBFCDBF11E0A0E0B1E0EEEF41
:10014000FFE002C005900D92AA31B107D9F721E076
:10015000AAE1B1E001C01D92A233B207E1F70E940B
:10016000C2000C94FD070C9400000E9461010E94E3
:10017000ED000E9430010E94F4000E9439020E94AA
:1001800035040895CF93DF93CDB7DEB72C970FB624
:10019000F894DEBF0FBECDBF0E94B5000E94EF00F5
:1001A0000E945C0164E170E084E190E00E9425011E
:1001B0000E94A6010E9473010E947F010E94BE015D
:1001C0000E94AD02CE0101960E9475034FE060E7E8
:1001D00070E080E40E944F05E1CF259A089595B123
:1001E00080E2892785B90895579A209A80EA8093FA
:1001F000800081E18093810080E991E09093870005
:100200008093860008955F9A813921E0920738F043
:1002100080E991E0909389008093880008959093FD
:100220008900809388000895289A813921E09207F7
:1002300038F080E991E090938B0080938A000895D4
:1002400090938B0080938A000895CF93DF93EB0106
:100250000E941401CE010E940301DF91CF91089505
:1002600024982C9A089583B18295817008950E94F4
:10027000330191E0892708950E943301882339F0E2
:100280008FE39CE90197F1F700C00000F5CF0E94D1
:1002900033018111F1CF08950E943701882339F08D
:1002A0008FE39CE90197F1F700C00000F5CF0E94B1
:1002B00037018111F1CF08950E943C010E944C0149
:1002C0000895789484B5836084BD85B5836085BDC9
:1002D000EAE7F0E0808187608083808180688083A6
:1002E0001092C10008952FB7F89460911B0170918E
:1002F0001C0180911D0190911E012FBF08953FB7F1
:10030000F89480911F0190912001A0912101B0915A
:10031000220126B5A89B02C02F3FA1F43FBFBA2FF0
:10032000A92F982F8827820F911DA11DB11DBC01F7
:10033000CD01660F771F881F991F660F771F881FD3
:10034000991F08950196A11DB11DE8CF10921F01BC
:1003500010922001109221011092220110921B0193
:1003600010921C0110921D0110921E0110921A0190
:10037000EEE6F0E08081816080830895EEE6F0E0B3
:1003800080818E7F808308951F920F920FB60F9207
:1003900011242F933F938F939F93AF93BF9380919B
:1003A0001B0190911C01A0911D01B0911E01309183
:1003B0001A0123E0230F2D3720F40196A11DB11D52
:1003C00005C026E8230F0296A11DB11D20931A0136
:1003D00080931B0190931C01A0931D01B0931E01FB
:1003E00080911F0190912001A0912101B0912201E3
:1003F0000196A11DB11D80931F0190932001A09330
:100400002101B0932201BF91AF919F918F913F91B4
:100410002F910F900FBE0F901F9018955A9A8FE84A
:1004200091E00197F1F700C0000008955A988FE815
:1004300091E00197F1F700C00000089580E090E09E
:1004400020ED37E0E0912801F0912901E80FF91F34
:1004500011821082E0912601F0912701E80FF91F27
:100460003183208302968C30910561F70E94160239
:1004700008950E941E02529A0895CF93DF93EC01D3
:10048000FC019C01245F3F4F80ED97E081939193A5
:10049000E217F307D9F7239A8AB180638AB987B143
:1004A000876087B92B9A8BB180638BB988B18760DD
:1004B00088B925E32A95F1F7000023988AB18F7C4B
:1004C0008AB987B1887F87B92B988BB18F7C8BB91C
:1004D00088B1887F88B90E94A6010E947F01603D93
:1004E00027E072078105910530F52BB12F7E11F4BD
:1004F0007983688328B12B7F11F47B836A8325B1CC
:10050000277F11F47D836C8328B12E7F11F47F83C4
:100510006E8328B12D7F11F47987688728B12B7FEE
:1005200011F47B876A870E947F01603D27E0720794
:1005300081059105D0F20E94BE01DF91CF9108950F
:10054000CF93DF93EC010E940E02CE010E943D0288
:100550000E941602DF91CF9108951F93CF93DF93EE
:10056000CDB7DEB72C970FB6F894DEBF0FBECDBF68
:1005700010E0CE0101960E94A002FE01319680E0BB
:1005800090E01123C1F1A0912601B0912701A80F9D
:10059000B91F408151812D913C912417350700F1FD
:1005A000A0912801B0912901A80FB91F4081518164
:1005B0002D913C914217530750F420813181A09135
:1005C0002801B0912901A80FB91F2D933C933296B1
:1005D00002968C309105A9F61F5F1A3051F616C0AD
:1005E00020813181A0912601B0912701A80FB91F68
:1005F0002D933C93D5CF20813181A0912601B091DC
:100600002701A80FB91F2D933C93D7CF2C960FB677
:10061000F894DEBF0FBECDBFDF91CF911F9108953B
:10062000CF92DF92EF92FF920F931F93CF93DF93BE
:10063000D82FC92F0E94A0020D2F1C2FC0E0D0E0A0
:100640000F2EF8EEEF2EF3E0FF2EF02DE0912601B5
:10065000F0912701EC0FFD1F80819181E09128012D
:10066000F0912901EC0FFD1F20813181F901E81B78
:10067000F90B71F16801D8012D913C91A90160E05D
:1006800070E09A01AB01281B390B41095109A8EE12
:10069000B3E00E94F2079F0140E050E00E94BE07D5
:1006A000C901992324F0F8013183208303C0D801C4
:1006B0001D921C92893E93401CF0F601F182E0826B
:1006C00022960E5F1F4FCC30D10509F0BFCF04C07A
:1006D000D8011D921C92F4CFDF91CF911F910F9101
:1006E000FF90EF90DF90CF9008957F928F929F922E
:1006F000AF92BF92CF92DF92EF92FF920F931F9330
:10070000CF93DF93082F192F109225010E94100319
:10071000C02FD12FC12CD12C760100E010E0812C0C
:10072000912C540177247394E991F991E333F10505
:1007300080F0DF01A70196010E94F207860E971E46
:10074000A81EB91E0E0F1F1FE93CF10510F0709294
:10075000250128EEC20E23E0D21EE11CF11C80E729
:10076000C81687E1D806E104F104F1F6809125016D
:1007700081110AC08091230190912401843C994009
:1007800080F088E893E10FC0980140E050E0C50197
:10079000B4010E949C07C9013093240120932301D6
:1007A00002C080E090E0DF91CF911F910F91FF9008
:1007B000EF90DF90CF90BF90AF909F908F907F9001
:1007C000089520912C01222331F0E0913001F09125
:1007D0003101849105C0E0913001F09131018081B7
:1007E0009FEB980F9A3108F4805E803269F4409153
:1007F000300150913101BA016F5F7F4F7093310129
:1008000060933001452BF9F60895CF93DF930E9452
:10081000E10390ED980F9A3010F5C0E0D0E09E0112
:10082000220F331FCC0FDD1FCC0FDD1FCC0FDD1FC0
:10083000C20FD31FC80FD11D87FDDA95E0978091B5
:1008400030019091310101969093310180933001F4
:100850000E94E10390ED980F9A3008F302C0C0E0C7
:10086000D0E0CE01DF91CF9108951092700081E227
:100870008093B0008BE08093B1008AEF8093B30047
:100880001092B400539A789408952F923F924F9209
:100890005F926F927F928F929F92AF92BF92CF9210
:1008A000DF92EF92FF920F931F93CF93DF9300D0CD
:1008B00000D01F92CDB7DEB77A8369834B83109245
:1008C000090199230CF0A2C01C01E89437F820E933
:1008D0002216310428F40F2EF0E92F2E312CF02DA2
:1008E000C101969587952C01612C712C6101E12C39
:1008F000F12CC301B2016058794687469F4FA7018A
:1009000096010E949C073D832C832F3F310581F186
:1009100078F10F2EFAE08F2E912CA12CB12CF02D16
:100920000AE012E01F5FE12FF0E0EE0FFF1FE65F2D
:10093000FE4F2081318140E050E060E072E18AE7C3
:1009400090E00E949C07C501B4010E947807640DE5
:10095000751D861D971DA70196010E949C073D836A
:100960002C832F3F310509F0E8F60A3091F401C0DD
:1009700012E091012B5F3F4FADECBCEC0E94E3070E
:100980001C0136942794369427943694279401C0FA
:1009900012E038EE231633E0330669F029813A81FC
:1009A000D1010E94E30728EE33E040E050E00E94CE
:1009B000BE073A83298310927000E1EBF0E080815A
:1009C000887F182B10838C818093B3000B810031BA
:1009D00008F00FE080E190E0801B91092C813D81BF
:1009E00002C0369527958A95E2F73D832C832093A4
:1009F000B40089819A8190932F0180932E0187B34F
:100A00008FEF87BB81E08093700031C08832910501
:100A100010F488E290E01C0191E1291697E2390672
:100A200030F00F2EF0E12F2EF7E23F2EF02DC10116
:100A3000969587952C01612C712C6101E12CF12C8C
:100A4000C301B201605C7D4B804F9F4FA7019601AF
:100A50000E949C073D832C832F3F310509F008F449
:100A600097CF812C912C5401839401E05ACF0F90A1
:100A70000F900F900F900F90DF91CF911F910F91DA
:100A8000FF90EF90DF90CF90BF90AF909F908F90AE
:100A90007F906F905F904F903F902F900895CF93ED
:100AA000DF93EB018F3F11F0411107C040E0BE0121
:100AB00088EE93E00E94450478C08131E8F08051CF
:100AC000803608F08FE52BEA829F212D1124269590
:100AD00026952695622FE82FF0E08CE0289FE019FC
:100AE000F1091124EC30F10558F5EC5CFF4F0C9442
:100AF000DD0785EB91E026C060E070E020E08CE946
:100B000091E020C08FEC91E01DC08AEE91E01AC008
:100B100087E092E017C086E292E014C087E492E09A
:100B200011C089E692E00EC08EE892E00BC085EB22
:100B300092E008C08EED92E005C08AE093E002C02A
:100B400080E090E02730B8F402C0880F991F6A95C2
:100B5000E2F7223070F09C012B5F3F4FADECBCEC14
:100B60000E94E30796958795969587959695879524
:100B700016C0905814C000249695879507949695B2
:100B800087950794982F802D9C012E5F3F4FADECE9
:100B9000BCEC0E94E3079695879596958795403122
:100BA00008F04FE0BE010E944504DF91CF91089507
:100BB0007F928F929F92AF92BF92CF92DF92EF92ED
:100BC000FF920F931F93CF93DF9390900801809132
:100BD0002B01882361F060912A01662341F070E0C7
:100BE00040E08FEF0E944F0510922A0127C16894C0
:100BF000882482F80F2EF0EDAF2EF7E0BF2EF02DF7
:100C00006894CC24C2F8D12C0F2EF4EFEF2EFF24E1
:100C1000F394F02DCFE0D0E000EC1DE57724739441
:100C20000E94E103E82F80913001909131010196FB
:100C300090933101809330018E2FEE0F990BAA0B08
:100C4000BB0BFC01B197E635F10508F086C0E05C0E
:100C5000FF4F0C94DD07D0E0CBE089C09394E0CF48
:100C60009A94DECFD0E0C2E082C0D0E0C4E07FC082
:100C7000D0E0C5E07CC0D0E0C7E079C00E940504A8
:100C8000BC0190930501809304018091060190912D
:100C900007010E9488077093030160930201C0CF8F
:100CA0000E94E1038C3619F410922B0104C070925B
:100CB0002B0110922A01809130019091310101960F
:100CC0009093310180933001ABCF0E940504982EA0
:100CD00080930801A5CFD1E0C0E049C00E9405047F
:100CE000BC01C8010E948807CB01880F991F660FBD
:100CF000771F660F771F660F771F860F971F9093DA
:100D000007018093060160910401709105010E9422
:100D10008807709303016093020182CF0E9405044B
:100D200090930101809300017BCF80920801B092E3
:100D30000701A0920601D0920501C0920401F09231
:100D40000301E0920201D0930101C09300011092CF
:100D50002B016894992492F863CF1092310110927C
:100D600030016CC0D0E0C9E002C0D0E0C0E0992DF5
:100D7000990F990E990C990CC90D0E94E103982FB7
:100D8000977F933219F08D3271F01BC08091300142
:100D90009091310101969093310180933001CF5FA2
:100DA0000E94E103ECCF80913001909131010196D6
:100DB0009093310180933001C1500E94E1038D3244
:100DC00091F38153883028F0E0900201F090030104
:100DD0000BC000910601109107010E940504BC019F
:100DE000C8010E9488077B018701169507950E941C
:100DF000E1038E3271F480913001909131010196BE
:100E00009093310180933001E00EF11E1695079505
:100E1000EECF80912B01882339F0C70196958795F5
:100E200080932A01E81AF10840910001D11102C013
:100E30008C2F01C08FEFB7010E944F05DF91CF913A
:100E40001F910F91FF90EF90DF90CF90BF90AF90E8
:100E50009F908F907F9008951F920F920FB60F92E0
:100E600011242F933F934F935F936F937F938F93AF
:100E70009F93AF93BF93EF93FF9380912E01909137
:100E80002F019C012150310930932F0120932E0115
:100E9000892BE9F4109270007894E1EBF0E0808106
:100EA000887F836080838AEF8093B3001092B400C0
:100EB00081E0809309018091300190913101892B6B
:100EC00031F080912D01811102C00E94D805FF915F
:100ED000EF91BF91AF919F918F917F916F915F91B2
:100EE0004F913F912F910F900FBE0F901F9018952B
:100EF000DB018F939F930E94F207BF91AF91A29F56
:100F0000800D911DA39F900DB29F900D1124089507
:100F1000AA1BBB1B51E107C0AA1FBB1FA617B7071F
:100F200010F0A61BB70B881F991F5A95A9F780953B
:100F30009095BC01CD010895A1E21A2EAA1BBB1BFE
:100F4000FD010DC0AA1FBB1FEE1FFF1FA217B30795
:100F5000E407F50720F0A21BB30BE40BF50B661FAB
:100F6000771F881F991F1A9469F76095709580956F
:100F700090959B01AC01BD01CF010895052E97FB13
:100F80001EF400940E94D50757FD07D00E949C07CD
:100F900007FC03D04EF40C94D5075095409530953E
:100FA00021953F4F4F4F5F4F0895909580957095D5
:100FB00061957F4F8F4F9F4F0895EE0FFF1F059054
:100FC000F491E02D0994A29FB001B39FC001A39FAB
:100FD000700D811D1124911DB29F700D811D112472
:100FE000911D08950E94E307A59F900DB49F900D59
:0E0FF000A49F800D911D11240895F894FFCF49
:100FFE000F00F4010400D0070401000001000800F6
:0A100E0020004000800000010004F3
:00000001FF
