S017000044616E79426F744672696D576172652E737265633F
S11300000C9496000C94B3000C94B3000C94B300BD
S11300100C94B3000C94B3000C94B3000C94B30090
S11300200C94B3000C942C040C94B3000C94B30003
S11300300C94B3000C94B3000C94B3000C94B30070
S11300400C943F050C94B3000C94D8040C94030551
S11300500C94B3000C94B3000C94B3000C94B30050
S11300600C94B3000C94B3007F02790282028502DF
S113007088028B028E029102940297029A029D02D8
S11300809503AD03AD03AD03AD03AD03AD03AD0304
S1130090AD03AD03AD03AD03AD03AD03AD03AD03DC
S11300A0AD03AD03AD03AD03AD03AD03AD03AD03CC
S11300B0AD03AD03AD033003AD032E03AD03AD03B8
S11300C0AD03AD03AD03AD03AD03AD03AD03AD03AC
S11300D0AD03AD03AD03AD03AD03AD03AD03AD039C
S11300E0AD03AD03AD03AD03AD03AD03AD03AD038C
S11300F0AD03AD03AD03AD03AD03AD03AD03AD037C
S1130100B2032B03B5033203350338033B03AD03BA
S1130110AD03AD03AD033E035003AD036503AD036F
S1130120AD036B03AD036E03AD038E0311241FBE39
S1130130CFEFD8E0DEBFCDBF11E0A0E0B1E0E0E258
S1130140FCE002C005900D92AA31B107D9F721E075
S1130150AAE1B1E001C01D92A838B207E1F70E94FC
S1130160C4000C940E060C9400000E942D050E94FD
S113017078040E94AC040E949D040E9499040E9489
S113018035010E94AF0408950E94B5000E947A04CC
S113019080E205C08AE00E94C304C0E28C2FC1E063
S11301A0C80F0E94C3042FEF8DEE92E021508040CF
S11301B09040E1F700C000000E947A04CE3771F746
S11301C0E9CF20911C01222331F0E0912001F0912C
S11301D02101849105C0E0912001F09121018081E9
S11301E09FEB980F9A3108F4805E803269F4409155
S11301F0200150912101BA016F5F7F4F709321015B
S113020060932001452BF9F60895CF93DF930E9464
S1130210E10090ED980F9A3010F5C0E0D0E09E0117
S1130220220F331FCC0FDD1FCC0FDD1FCC0FDD1FC2
S1130230C20FD31FC80FD11D87FDDA95E0978091B7
S11302402001909121010196909321018093200136
S11302500E94E10090ED980F9A3008F302C0C0E0CC
S1130260D0E0CE01DF91CF9108951092700081E229
S11302708093B0008BE08093B1008AEF8093B30049
S11302801092B400539A789408952F923F924F920B
S11302905F926F927F928F929F92AF92BF92CF9212
S11302A0DF92EF92FF920F931F93CF93DF9300D0CF
S11302B000D01F92CDB7DEB77A8369834B83109247
S11302C0090199230CF0A2C01C01E89437F820E935
S11302D02216310428F40F2EF0E92F2E312CF02DA4
S11302E0C101969587952C01612C712C6101E12C3B
S11302F0F12CC301B2016058794687469F4FA7018C
S113030096010E94AD053D832C832F3F310581F179
S113031078F10F2EFAE08F2E912CA12CB12CF02D18
S11303200AE012E01F5FE12FF0E0EE0FFF1FE65F2F
S1130330FE4F2081318140E050E060E072E18AE7C5
S113034090E00E94AD05C501B4010E948905640DC9
S1130350751D861D971DA70196010E94AD053D835D
S11303602C832F3F310509F0E8F60A3091F401C0DF
S113037012E091012B5F3F4FADECBCEC0E94F40501
S11303801C0136942794369427943694279401C0FC
S113039012E038EE231633E0330669F029813A81FE
S11303A0D1010E94F40528EE33E040E050E00E94C1
S11303B0CF053A83298310927000E1EBF0E080814D
S11303C0887F182B10838C818093B3000B810031BC
S11303D008F00FE080E190E0801B91092C813D81C1
S11303E002C0369527958A95E2F73D832C832093A6
S11303F0B40089819A8190931F0180931E0187B371
S11304008FEF87BB81E08093700031C08832910503
S113041010F488E290E01C0191E1291697E2390674
S113042030F00F2EF0E12F2EF7E23F2EF02DC10118
S1130430969587952C01612C712C6101E12CF12C8E
S1130440C301B201605C7D4B804F9F4FA7019601B1
S11304500E94AD053D832C832F3F310509F008F43C
S113046097CF812C912C5401839401E05ACF0F90A3
S11304700F900F900F900F90DF91CF911F910F91DC
S1130480FF90EF90DF90CF90BF90AF909F908F90B0
S11304907F906F905F904F903F902F900895CF93EF
S11304A0DF93EB018F3F11F0411107C040E0BE0123
S11304B088EE93E00E94450178C08131E8F08051D4
S11304C0803608F08FE52BEA829F212D1124269592
S11304D026952695622FE82FF0E08CE0289FE019FE
S11304E0F1091124EC30F10558F5EC5CFF4F0C9444
S11304F0EE0585EB91E026C060E070E020E08CE939
S113050091E020C08FEC91E01DC08AEE91E01AC00A
S113051087E092E017C086E292E014C087E492E09C
S113052011C089E692E00EC08EE892E00BC085EB24
S113053092E008C08EED92E005C08AE093E002C02C
S113054080E090E02730B8F402C0880F991F6A95C4
S1130550E2F7223070F09C012B5F3F4FADECBCEC16
S11305600E94F40596958795969587959695879517
S113057016C0905814C000249695879507949695B4
S113058087950794982F802D9C012E5F3F4FADECEB
S1130590BCEC0E94F4059695879596958795403115
S11305A008F04FE0BE010E944501DF91CF9108950C
S11305B07F928F929F92AF92BF92CF92DF92EF92EF
S11305C0FF920F931F93CF93DF9390900801809134
S11305D01B01882361F060911A01662341F070E0E9
S11305E040E08FEF0E944F0210921A0127C16894D5
S11305F0882482F80F2EF0EDAF2EF7E0BF2EF02DF9
S11306006894CC24C2F8D12C0F2EF4EFEF2EFF24E3
S1130610F394F02DCFE0D0E000EC1DE57724739443
S11306200E94E100E82F8091200190912101019620
S113063090932101809320018E2FEE0F990BAA0B2A
S1130640BB0BFC01B197E635F10508F086C0E05C10
S1130650FF4F0C94EE05D0E0CBE089C09394E0CF3B
S11306609A94DECFD0E0C2E082C0D0E0C4E07FC084
S1130670D0E0C5E07CC0D0E0C7E079C00E940501AD
S1130680BC0190930501809304018091060190912F
S113069007010E9499057093030160930201C0CF82
S11306A00E94E1008C3619F410921B0104C0709270
S11306B01B0110921A018091200190912101019651
S11306C09093210180932001ABCF0E940501982EC5
S11306D080930801A5CFD1E0C0E049C00E94050184
S11306E0BC01C8010E949905CB01880F991F660FB0
S11306F0771F660F771F660F771F860F971F9093DC
S113070007018093060160910401709105010E9424
S11307109905709303016093020182CF0E94050141
S113072090930101809300017BCF80920801B092E5
S11307300701A0920601D0920501C0920401F09233
S11307400301E0920201D0930101C09300011092D1
S11307501B016894992492F863CF1092210110929E
S113076020016CC0D0E0C9E002C0D0E0C0E0992D07
S1130770990F990E990C990CC90D0E94E100982FBC
S1130780977F933219F08D3271F01BC08091200154
S11307909091210101969093210180932001CF5FD4
S11307A00E94E100ECCF80912001909121010196FB
S11307B09093210180932001C1500E94E1008D3269
S11307C091F38153883028F0E0900201F090030106
S11307D00BC000910601109107010E940501BC01A4
S11307E0C8010E9499057B018701169507950E940F
S11307F0E1008E3271F480912001909121010196E3
S11308009093210180932001E00EF11E1695079527
S1130810EECF80911B01882339F0C7019695879507
S113082080931A01E81AF10840910001D11102C025
S11308308C2F01C08FEFB7010E944F02DF91CF913F
S11308401F910F91FF90EF90DF90CF90BF90AF90EA
S11308509F908F907F9008951F920F920FB60F92E2
S113086011242F933F934F935F936F937F938F93B1
S11308709F93AF93BF93EF93FF9380911E01909149
S11308801F019C012150310930931F0120931E0147
S1130890892BE9F4109270007894E1EBF0E0808108
S11308A0887F836080838AEF8093B3001092B400C2
S11308B081E0809309018091200190912101892B8D
S11308C031F080911D01811102C00E94D802FF9174
S11308D0EF91BF91AF919F918F917F916F915F91B4
S11308E04F913F912F910F900FBE0F901F9018952D
S11308F0259A089595B180E2892785B908955A9873
S11309008FE891E00197F1F700C000000895EEE24E
S1130910F1E0A2E2B1E02AE331E080ED97E0119248
S113092011928D939D93E217F307C9F70E947F04F8
S113093008950E948704529A0895579A209A80EA4B
S11309408093800081E18093810080E991E090931D
S1130950870080938600089524982C9A0895109215
S11309603E0110923D0110923C0110923B01109205
S1130970C50083E08093C40088E98093C10086E0C9
S11309808093C200089520913E012F5F2F719091B2
S11309903D012917E1F3E22FF0E0E15AFE4F808395
S11309A020933E01E1ECF0E0808180628083089531
S11309B01F920F920FB60F9211242F938F939F9330
S11309C0EF93FF938091C0002091C6008871E0915D
S11309D03C01EF5FEF7190913B01E91739F0E0932F
S11309E03C01F0E0E15CFE4F208301C082E0809393
S11309F03A01FF91EF919F918F912F910F900FBE2C
S1130A000F901F9018951F920F920FB60F921124FA
S1130A108F939F93EF93FF9390913E0180913D01BB
S1130A20981769F0E0913D01EF5FEF71E0933D01AC
S1130A30F0E0E15AFE4F80818093C60005C0E1ECEE
S1130A40F0E080818F7D8083FF91EF919F918F9162
S1130A500F900FBE0F901F901895789484B5836003
S1130A6084BD85B5836085BDEAE7F0E08081876059
S1130A7080838081806880831092C10008951F92D2
S1130A800F920FB60F9211242F933F938F939F933E
S1130A90AF93BF938091800190918101A0918201D5
S1130AA0B091830130917F0123E0230F2D3720F48F
S1130AB00196A11DB11D05C026E8230F0296A11DB4
S1130AC0B11D20937F018093800190938101A093B5
S1130AD08201B09383018091840190918501A0915A
S1130AE08601B09187010196A11DB11D80938401F7
S1130AF090938501A0938601B0938701BF91AF9134
S1130B009F918F913F912F910F900FBE0F901F9047
S1130B101895DB018F939F930E940306BF91AF91B9
S1130B20A29F800D911DA39F900DB29F900D112443
S1130B300895AA1BBB1B51E107C0AA1FBB1FA61720
S1130B40B70710F0A61BB70B881F991F5A95A9F772
S1130B5080959095BC01CD010895A1E21A2EAA1B9F
S1130B60BB1BFD010DC0AA1FBB1FEE1FFF1FA21759
S1130B70B307E407F50720F0A21BB30BE40BF50B56
S1130B80661F771F881F991F1A9469F760957095DF
S1130B90809590959B01AC01BD01CF010895052E70
S1130BA097FB1EF400940E94E60557FD07D00E94AF
S1130BB0AD0507FC03D04EF40C94E6055095409522
S1130BC0309521953F4F4F4F5F4F089590958095F5
S1130BD0709561957F4F8F4F9F4F0895EE0FFF1FC4
S1130BE00590F491E02D0994A29FB001B39FC00138
S1130BF0A39F700D811D1124911DB29F700D811D45
S1130C001124911D08950E94F405A59F900DB49F91
S1130C10900DA49F800D911D11240895F894FFCF89
S1130C200F00F4010400D0070401000001000800D3
S10D0C3020004000800000010004D1
S9030000FC
